{
  "_format": "hh-sol-artifact-1",
  "contractName": "SimpleSwap",
  "sourceName": "contracts/SimpleSwap.sol",
  "abi": [
    {
      "inputs": [],
      "stateMutability": "nonpayable",
      "type": "constructor"
    },
    {
      "inputs": [
        {
          "internalType": "address",
          "name": "spender",
          "type": "address"
        },
        {
          "internalType": "uint256",
          "name": "allowance",
          "type": "uint256"
        },
        {
          "internalType": "uint256",
          "name": "needed",
          "type": "uint256"
        }
      ],
      "name": "ERC20InsufficientAllowance",
      "type": "error"
    },
    {
      "inputs": [
        {
          "internalType": "address",
          "name": "sender",
          "type": "address"
        },
        {
          "internalType": "uint256",
          "name": "balance",
          "type": "uint256"
        },
        {
          "internalType": "uint256",
          "name": "needed",
          "type": "uint256"
        }
      ],
      "name": "ERC20InsufficientBalance",
      "type": "error"
    },
    {
      "inputs": [
        {
          "internalType": "address",
          "name": "approver",
          "type": "address"
        }
      ],
      "name": "ERC20InvalidApprover",
      "type": "error"
    },
    {
      "inputs": [
        {
          "internalType": "address",
          "name": "receiver",
          "type": "address"
        }
      ],
      "name": "ERC20InvalidReceiver",
      "type": "error"
    },
    {
      "inputs": [
        {
          "internalType": "address",
          "name": "sender",
          "type": "address"
        }
      ],
      "name": "ERC20InvalidSender",
      "type": "error"
    },
    {
      "inputs": [
        {
          "internalType": "address",
          "name": "spender",
          "type": "address"
        }
      ],
      "name": "ERC20InvalidSpender",
      "type": "error"
    },
    {
      "inputs": [
        {
          "internalType": "address",
          "name": "token",
          "type": "address"
        }
      ],
      "name": "SafeERC20FailedOperation",
      "type": "error"
    },
    {
      "anonymous": false,
      "inputs": [
        {
          "indexed": true,
          "internalType": "address",
          "name": "owner",
          "type": "address"
        },
        {
          "indexed": true,
          "internalType": "address",
          "name": "spender",
          "type": "address"
        },
        {
          "indexed": false,
          "internalType": "uint256",
          "name": "value",
          "type": "uint256"
        }
      ],
      "name": "Approval",
      "type": "event"
    },
    {
      "anonymous": false,
      "inputs": [
        {
          "indexed": true,
          "internalType": "address",
          "name": "from",
          "type": "address"
        },
        {
          "indexed": true,
          "internalType": "address",
          "name": "to",
          "type": "address"
        },
        {
          "indexed": false,
          "internalType": "uint256",
          "name": "value",
          "type": "uint256"
        }
      ],
      "name": "Transfer",
      "type": "event"
    },
    {
      "inputs": [
        {
          "internalType": "uint256",
          "name": "amountA",
          "type": "uint256"
        },
        {
          "internalType": "uint256",
          "name": "amountB",
          "type": "uint256"
        }
      ],
      "name": "addLiquidity",
      "outputs": [
        {
          "internalType": "uint256",
          "name": "liquidityMinted",
          "type": "uint256"
        }
      ],
      "stateMutability": "nonpayable",
      "type": "function"
    },
    {
      "inputs": [
        {
          "internalType": "address",
          "name": "owner",
          "type": "address"
        },
        {
          "internalType": "address",
          "name": "spender",
          "type": "address"
        }
      ],
      "name": "allowance",
      "outputs": [
        {
          "internalType": "uint256",
          "name": "",
          "type": "uint256"
        }
      ],
      "stateMutability": "view",
      "type": "function"
    },
    {
      "inputs": [
        {
          "internalType": "address",
          "name": "spender",
          "type": "address"
        },
        {
          "internalType": "uint256",
          "name": "value",
          "type": "uint256"
        }
      ],
      "name": "approve",
      "outputs": [
        {
          "internalType": "bool",
          "name": "",
          "type": "bool"
        }
      ],
      "stateMutability": "nonpayable",
      "type": "function"
    },
    {
      "inputs": [
        {
          "internalType": "address",
          "name": "account",
          "type": "address"
        }
      ],
      "name": "balanceOf",
      "outputs": [
        {
          "internalType": "uint256",
          "name": "",
          "type": "uint256"
        }
      ],
      "stateMutability": "view",
      "type": "function"
    },
    {
      "inputs": [],
      "name": "decimals",
      "outputs": [
        {
          "internalType": "uint8",
          "name": "",
          "type": "uint8"
        }
      ],
      "stateMutability": "view",
      "type": "function"
    },
    {
      "inputs": [
        {
          "internalType": "uint256",
          "name": "amountIn",
          "type": "uint256"
        },
        {
          "internalType": "uint256",
          "name": "reserveIn",
          "type": "uint256"
        },
        {
          "internalType": "uint256",
          "name": "reserveOut",
          "type": "uint256"
        }
      ],
      "name": "getAmountOut",
      "outputs": [
        {
          "internalType": "uint256",
          "name": "amountOut",
          "type": "uint256"
        }
      ],
      "stateMutability": "pure",
      "type": "function"
    },
    {
      "inputs": [],
      "name": "getPrice",
      "outputs": [
        {
          "internalType": "uint256",
          "name": "price",
          "type": "uint256"
        }
      ],
      "stateMutability": "view",
      "type": "function"
    },
    {
      "inputs": [
        {
          "internalType": "address",
          "name": "_tokenA",
          "type": "address"
        },
        {
          "internalType": "address",
          "name": "_tokenB",
          "type": "address"
        }
      ],
      "name": "initializeTokens",
      "outputs": [],
      "stateMutability": "nonpayable",
      "type": "function"
    },
    {
      "inputs": [],
      "name": "name",
      "outputs": [
        {
          "internalType": "string",
          "name": "",
          "type": "string"
        }
      ],
      "stateMutability": "view",
      "type": "function"
    },
    {
      "inputs": [
        {
          "internalType": "uint256",
          "name": "liquidity",
          "type": "uint256"
        }
      ],
      "name": "removeLiquidity",
      "outputs": [
        {
          "internalType": "uint256",
          "name": "amountAOut",
          "type": "uint256"
        },
        {
          "internalType": "uint256",
          "name": "amountBOut",
          "type": "uint256"
        }
      ],
      "stateMutability": "nonpayable",
      "type": "function"
    },
    {
      "inputs": [],
      "name": "reserveA",
      "outputs": [
        {
          "internalType": "uint256",
          "name": "",
          "type": "uint256"
        }
      ],
      "stateMutability": "view",
      "type": "function"
    },
    {
      "inputs": [],
      "name": "reserveB",
      "outputs": [
        {
          "internalType": "uint256",
          "name": "",
          "type": "uint256"
        }
      ],
      "stateMutability": "view",
      "type": "function"
    },
    {
      "inputs": [
        {
          "internalType": "uint256",
          "name": "amountIn",
          "type": "uint256"
        },
        {
          "internalType": "uint256",
          "name": "amountOutMin",
          "type": "uint256"
        },
        {
          "internalType": "address",
          "name": "tokenIn",
          "type": "address"
        }
      ],
      "name": "swapExactTokensForTokens",
      "outputs": [
        {
          "internalType": "uint256",
          "name": "amountOut",
          "type": "uint256"
        }
      ],
      "stateMutability": "nonpayable",
      "type": "function"
    },
    {
      "inputs": [],
      "name": "symbol",
      "outputs": [
        {
          "internalType": "string",
          "name": "",
          "type": "string"
        }
      ],
      "stateMutability": "view",
      "type": "function"
    },
    {
      "inputs": [],
      "name": "tokenA",
      "outputs": [
        {
          "internalType": "contract IERC20",
          "name": "",
          "type": "address"
        }
      ],
      "stateMutability": "view",
      "type": "function"
    },
    {
      "inputs": [],
      "name": "tokenB",
      "outputs": [
        {
          "internalType": "contract IERC20",
          "name": "",
          "type": "address"
        }
      ],
      "stateMutability": "view",
      "type": "function"
    },
    {
      "inputs": [],
      "name": "totalSupply",
      "outputs": [
        {
          "internalType": "uint256",
          "name": "",
          "type": "uint256"
        }
      ],
      "stateMutability": "view",
      "type": "function"
    },
    {
      "inputs": [
        {
          "internalType": "address",
          "name": "to",
          "type": "address"
        },
        {
          "internalType": "uint256",
          "name": "value",
          "type": "uint256"
        }
      ],
      "name": "transfer",
      "outputs": [
        {
          "internalType": "bool",
          "name": "",
          "type": "bool"
        }
      ],
      "stateMutability": "nonpayable",
      "type": "function"
    },
    {
      "inputs": [
        {
          "internalType": "address",
          "name": "from",
          "type": "address"
        },
        {
          "internalType": "address",
          "name": "to",
          "type": "address"
        },
        {
          "internalType": "uint256",
          "name": "value",
          "type": "uint256"
        }
      ],
      "name": "transferFrom",
      "outputs": [
        {
          "internalType": "bool",
          "name": "",
          "type": "bool"
        }
      ],
      "stateMutability": "nonpayable",
      "type": "function"
    }
  ],
  "bytecode": "0x60806040523480156200001157600080fd5b506040518060400160405280600f81526020017f4c697175696469747920546f6b656e00000000000000000000000000000000008152506040518060400160405280600381526020017f4c5154000000000000000000000000000000000000000000000000000000000081525081600390816200008f919062000324565b508060049081620000a1919062000324565b5050506200040b565b600081519050919050565b7f4e487b7100000000000000000000000000000000000000000000000000000000600052604160045260246000fd5b7f4e487b7100000000000000000000000000000000000000000000000000000000600052602260045260246000fd5b600060028204905060018216806200012c57607f821691505b602082108103620001425762000141620000e4565b5b50919050565b60008190508160005260206000209050919050565b60006020601f8301049050919050565b600082821b905092915050565b600060088302620001ac7fffffffffffffffffffffffffffffffffffffffffffffffffffffffffffffffff826200016d565b620001b886836200016d565b95508019841693508086168417925050509392505050565b6000819050919050565b6000819050919050565b600062000205620001ff620001f984620001d0565b620001da565b620001d0565b9050919050565b6000819050919050565b6200022183620001e4565b6200023962000230826200020c565b8484546200017a565b825550505050565b600090565b6200025062000241565b6200025d81848462000216565b505050565b5b8181101562000285576200027960008262000246565b60018101905062000263565b5050565b601f821115620002d4576200029e8162000148565b620002a9846200015d565b81016020851015620002b9578190505b620002d1620002c8856200015d565b83018262000262565b50505b505050565b600082821c905092915050565b6000620002f960001984600802620002d9565b1980831691505092915050565b6000620003148383620002e6565b9150826002028217905092915050565b6200032f82620000aa565b67ffffffffffffffff8111156200034b576200034a620000b5565b5b62000357825462000113565b6200036482828562000289565b600060209050601f8311600181146200039c576000841562000387578287015190505b62000393858262000306565b86555062000403565b601f198416620003ac8662000148565b60005b82811015620003d657848901518255600182019150602085019450602081019050620003af565b86831015620003f65784890151620003f2601f891682620002e6565b8355505b6001600288020188555050505b505050505050565b612493806200041b6000396000f3fe608060405234801561001057600080fd5b50600436106101215760003560e01c80635f64b55b116100ad5780639c8f9f23116100715780639c8f9f23146103225780639cd441da14610353578063a9059cbb14610383578063dc5fa6c5146103b3578063dd62ed3e146103d157610121565b80635f64b55b146102685780636e17e9f61461028657806370a08231146102b657806395d89b41146102e657806398d5fdca1461030457610121565b806318160ddd116100f457806318160ddd146101c257806319e36f3b146101e05780631b542d74146101fe57806323b872dd1461021a578063313ce5671461024a57610121565b8063054d50d41461012657806306fdde0314610156578063095ea7b3146101745780630fc63d10146101a4575b600080fd5b610140600480360381019061013b91906119da565b610401565b60405161014d9190611a3c565b60405180910390f35b61015e6104bf565b60405161016b9190611ae7565b60405180910390f35b61018e60048036038101906101899190611b67565b610551565b60405161019b9190611bc2565b60405180910390f35b6101ac610574565b6040516101b99190611c3c565b60405180910390f35b6101ca61059a565b6040516101d79190611a3c565b60405180910390f35b6101e86105a4565b6040516101f59190611a3c565b60405180910390f35b61021860048036038101906102139190611c57565b6105aa565b005b610234600480360381019061022f9190611c97565b6106c1565b6040516102419190611bc2565b60405180910390f35b6102526106f0565b60405161025f9190611d06565b60405180910390f35b6102706106f9565b60405161027d9190611c3c565b60405180910390f35b6102a0600480360381019061029b9190611d21565b61071f565b6040516102ad9190611a3c565b60405180910390f35b6102d060048036038101906102cb9190611d74565b610a56565b6040516102dd9190611a3c565b60405180910390f35b6102ee610a9e565b6040516102fb9190611ae7565b60405180910390f35b61030c610b30565b6040516103199190611a3c565b60405180910390f35b61033c60048036038101906103379190611da1565b610b9e565b60405161034a929190611dce565b60405180910390f35b61036d60048036038101906103689190611df7565b610d5d565b60405161037a9190611a3c565b60405180910390f35b61039d60048036038101906103989190611b67565b610f00565b6040516103aa9190611bc2565b60405180910390f35b6103bb610f23565b6040516103c89190611a3c565b60405180910390f35b6103eb60048036038101906103e69190611c57565b610f29565b6040516103f89190611a3c565b60405180910390f35b6000808411610445576040517f08c379a000000000000000000000000000000000000000000000000000000000815260040161043c90611e83565b60405180910390fd5b6000831180156104555750600082115b610494576040517f08c379a000000000000000000000000000000000000000000000000000000000815260040161048b90611eef565b60405180910390fd5b83836104a09190611f3e565b82856104ac9190611f72565b6104b69190611fe3565b90509392505050565b6060600380546104ce90612043565b80601f01602080910402602001604051908101604052809291908181526020018280546104fa90612043565b80156105475780601f1061051c57610100808354040283529160200191610547565b820191906000526020600020905b81548152906001019060200180831161052a57829003601f168201915b5050505050905090565b60008061055c610fb0565b9050610569818585610fb8565b600191505092915050565b600560009054906101000a900473ffffffffffffffffffffffffffffffffffffffff1681565b6000600254905090565b60085481565b600073ffffffffffffffffffffffffffffffffffffffff16600560009054906101000a900473ffffffffffffffffffffffffffffffffffffffff1673ffffffffffffffffffffffffffffffffffffffff161461063b576040517f08c379a0000000000000000000000000000000000000000000000000000000008152600401610632906120c0565b60405180910390fd5b81600560006101000a81548173ffffffffffffffffffffffffffffffffffffffff021916908373ffffffffffffffffffffffffffffffffffffffff16021790555080600660006101000a81548173ffffffffffffffffffffffffffffffffffffffff021916908373ffffffffffffffffffffffffffffffffffffffff1602179055505050565b6000806106cc610fb0565b90506106d9858285610fca565b6106e485858561105f565b60019150509392505050565b60006012905090565b600660009054906101000a900473ffffffffffffffffffffffffffffffffffffffff1681565b6000600560009054906101000a900473ffffffffffffffffffffffffffffffffffffffff1673ffffffffffffffffffffffffffffffffffffffff168273ffffffffffffffffffffffffffffffffffffffff1614806107ca5750600660009054906101000a900473ffffffffffffffffffffffffffffffffffffffff1673ffffffffffffffffffffffffffffffffffffffff168273ffffffffffffffffffffffffffffffffffffffff16145b610809576040517f08c379a00000000000000000000000000000000000000000000000000000000081526004016108009061212c565b60405180910390fd5b6000600560009054906101000a900473ffffffffffffffffffffffffffffffffffffffff1673ffffffffffffffffffffffffffffffffffffffff168373ffffffffffffffffffffffffffffffffffffffff1614905060008161088d57600660009054906101000a900473ffffffffffffffffffffffffffffffffffffffff166108b1565b600560009054906101000a900473ffffffffffffffffffffffffffffffffffffffff165b90506000826108e257600560009054906101000a900473ffffffffffffffffffffffffffffffffffffffff16610906565b600660009054906101000a900473ffffffffffffffffffffffffffffffffffffffff165b90506000836109175760085461091b565b6007545b905060008461092c57600754610930565b6008545b905061095f33308b8773ffffffffffffffffffffffffffffffffffffffff16611153909392919063ffffffff16565b61096a898383610401565b9550878610156109af576040517f08c379a00000000000000000000000000000000000000000000000000000000081526004016109a690612198565b60405180910390fd5b6109da33878573ffffffffffffffffffffffffffffffffffffffff166111d59092919063ffffffff16565b8415610a175788600760008282546109f29190611f3e565b925050819055508560086000828254610a0b91906121b8565b92505081905550610a4a565b8860086000828254610a299190611f3e565b925050819055508560076000828254610a4291906121b8565b925050819055505b50505050509392505050565b60008060008373ffffffffffffffffffffffffffffffffffffffff1673ffffffffffffffffffffffffffffffffffffffff168152602001908152602001600020549050919050565b606060048054610aad90612043565b80601f0160208091040260200160405190810160405280929190818152602001828054610ad990612043565b8015610b265780601f10610afb57610100808354040283529160200191610b26565b820191906000526020600020905b815481529060010190602001808311610b0957829003601f168201915b5050505050905090565b60008060075411610b76576040517f08c379a0000000000000000000000000000000000000000000000000000000008152600401610b6d90612238565b60405180910390fd5b600754670de0b6b3a7640000600854610b8f9190611f72565b610b999190611fe3565b905090565b6000806000610bab61059a565b9050600084118015610bbd5750808411155b610bfc576040517f08c379a0000000000000000000000000000000000000000000000000000000008152600401610bf3906122a4565b60405180910390fd5b8060075485610c0b9190611f72565b610c159190611fe3565b92508060085485610c269190611f72565b610c309190611fe3565b9150600083118015610c425750600082115b610c81576040517f08c379a0000000000000000000000000000000000000000000000000000000008152600401610c7890612310565b60405180910390fd5b610c8b3385611254565b8260076000828254610c9d91906121b8565b925050819055508160086000828254610cb691906121b8565b92505081905550610d0a3384600560009054906101000a900473ffffffffffffffffffffffffffffffffffffffff1673ffffffffffffffffffffffffffffffffffffffff166111d59092919063ffffffff16565b610d573383600660009054906101000a900473ffffffffffffffffffffffffffffffffffffffff1673ffffffffffffffffffffffffffffffffffffffff166111d59092919063ffffffff16565b50915091565b6000610dae333085600560009054906101000a900473ffffffffffffffffffffffffffffffffffffffff1673ffffffffffffffffffffffffffffffffffffffff16611153909392919063ffffffff16565b610dfd333084600660009054906101000a900473ffffffffffffffffffffffffffffffffffffffff1673ffffffffffffffffffffffffffffffffffffffff16611153909392919063ffffffff16565b6000610e0761059a565b905060008103610e2c57610e258385610e209190611f72565b6112d6565b9150610e7a565b60006007548286610e3d9190611f72565b610e479190611fe3565b905060006008548386610e5a9190611f72565b610e649190611fe3565b9050808210610e735780610e75565b815b935050505b60008211610ebd576040517f08c379a0000000000000000000000000000000000000000000000000000000008152600401610eb49061237c565b60405180910390fd5b610ec73383611473565b8360076000828254610ed99190611f3e565b925050819055508260086000828254610ef29190611f3e565b925050819055505092915050565b600080610f0b610fb0565b9050610f1881858561105f565b600191505092915050565b60075481565b6000600160008473ffffffffffffffffffffffffffffffffffffffff1673ffffffffffffffffffffffffffffffffffffffff16815260200190815260200160002060008373ffffffffffffffffffffffffffffffffffffffff1673ffffffffffffffffffffffffffffffffffffffff16815260200190815260200160002054905092915050565b600033905090565b610fc583838360016114f5565b505050565b6000610fd68484610f29565b90507fffffffffffffffffffffffffffffffffffffffffffffffffffffffffffffffff8110156110595781811015611049578281836040517ffb8f41b2000000000000000000000000000000000000000000000000000000008152600401611040939291906123ab565b60405180910390fd5b611058848484840360006114f5565b5b50505050565b600073ffffffffffffffffffffffffffffffffffffffff168373ffffffffffffffffffffffffffffffffffffffff16036110d15760006040517f96c6fd1e0000000000000000000000000000000000000000000000000000000081526004016110c891906123e2565b60405180910390fd5b600073ffffffffffffffffffffffffffffffffffffffff168273ffffffffffffffffffffffffffffffffffffffff16036111435760006040517fec442f0500000000000000000000000000000000000000000000000000000000815260040161113a91906123e2565b60405180910390fd5b61114e8383836116cc565b505050565b6111cf848573ffffffffffffffffffffffffffffffffffffffff166323b872dd868686604051602401611188939291906123fd565b604051602081830303815290604052915060e01b6020820180517bffffffffffffffffffffffffffffffffffffffffffffffffffffffff83818316178352505050506118f1565b50505050565b61124f838473ffffffffffffffffffffffffffffffffffffffff1663a9059cbb8585604051602401611208929190612434565b604051602081830303815290604052915060e01b6020820180517bffffffffffffffffffffffffffffffffffffffffffffffffffffffff83818316178352505050506118f1565b505050565b600073ffffffffffffffffffffffffffffffffffffffff168273ffffffffffffffffffffffffffffffffffffffff16036112c65760006040517f96c6fd1e0000000000000000000000000000000000000000000000000000000081526004016112bd91906123e2565b60405180910390fd5b6112d2826000836116cc565b5050565b6000600182116112e85781905061146e565b6000829050600060019050700100000000000000000000000000000000821061131a57608082901c9150604081901b90505b68010000000000000000821061133957604082901c9150602081901b90505b640100000000821061135457602082901c9150601081901b90505b62010000821061136d57601082901c9150600881901b90505b610100821061138557600882901c9150600481901b90505b6010821061139c57600482901c9150600281901b90505b600482106113ac57600181901b90505b600181600302901c905060018185816113c8576113c7611fb4565b5b048201901c905060018185816113e1576113e0611fb4565b5b048201901c905060018185816113fa576113f9611fb4565b5b048201901c9050600181858161141357611412611fb4565b5b048201901c9050600181858161142c5761142b611fb4565b5b048201901c9050600181858161144557611444611fb4565b5b048201901c905061146781858161145f5761145e611fb4565b5b048211611993565b8103925050505b919050565b600073ffffffffffffffffffffffffffffffffffffffff168273ffffffffffffffffffffffffffffffffffffffff16036114e55760006040517fec442f050000000000000000000000000000000000000000000000000000000081526004016114dc91906123e2565b60405180910390fd5b6114f1600083836116cc565b5050565b600073ffffffffffffffffffffffffffffffffffffffff168473ffffffffffffffffffffffffffffffffffffffff16036115675760006040517fe602df0500000000000000000000000000000000000000000000000000000000815260040161155e91906123e2565b60405180910390fd5b600073ffffffffffffffffffffffffffffffffffffffff168373ffffffffffffffffffffffffffffffffffffffff16036115d95760006040517f94280d620000000000000000000000000000000000000000000000000000000081526004016115d091906123e2565b60405180910390fd5b81600160008673ffffffffffffffffffffffffffffffffffffffff1673ffffffffffffffffffffffffffffffffffffffff16815260200190815260200160002060008573ffffffffffffffffffffffffffffffffffffffff1673ffffffffffffffffffffffffffffffffffffffff1681526020019081526020016000208190555080156116c6578273ffffffffffffffffffffffffffffffffffffffff168473ffffffffffffffffffffffffffffffffffffffff167f8c5be1e5ebec7d5bd14f71427d1e84f3dd0314c0f7b2291e5b200ac8c7c3b925846040516116bd9190611a3c565b60405180910390a35b50505050565b600073ffffffffffffffffffffffffffffffffffffffff168373ffffffffffffffffffffffffffffffffffffffff160361171e5780600260008282546117129190611f3e565b925050819055506117f1565b60008060008573ffffffffffffffffffffffffffffffffffffffff1673ffffffffffffffffffffffffffffffffffffffff168152602001908152602001600020549050818110156117aa578381836040517fe450d38c0000000000000000000000000000000000000000000000000000000081526004016117a1939291906123ab565b60405180910390fd5b8181036000808673ffffffffffffffffffffffffffffffffffffffff1673ffffffffffffffffffffffffffffffffffffffff16815260200190815260200160002081905550505b600073ffffffffffffffffffffffffffffffffffffffff168273ffffffffffffffffffffffffffffffffffffffff160361183a5780600260008282540392505081905550611887565b806000808473ffffffffffffffffffffffffffffffffffffffff1673ffffffffffffffffffffffffffffffffffffffff168152602001908152602001600020600082825401925050819055505b8173ffffffffffffffffffffffffffffffffffffffff168373ffffffffffffffffffffffffffffffffffffffff167fddf252ad1be2c89b69c2b068fc378daa952ba7f163c4a11628f55a4df523b3ef836040516118e49190611a3c565b60405180910390a3505050565b600080602060008451602086016000885af180611914576040513d6000823e3d81fd5b3d92506000519150506000821461192f57600181141561194b565b60008473ffffffffffffffffffffffffffffffffffffffff163b145b1561198d57836040517f5274afe700000000000000000000000000000000000000000000000000000000815260040161198491906123e2565b60405180910390fd5b50505050565b60008115159050919050565b600080fd5b6000819050919050565b6119b7816119a4565b81146119c257600080fd5b50565b6000813590506119d4816119ae565b92915050565b6000806000606084860312156119f3576119f261199f565b5b6000611a01868287016119c5565b9350506020611a12868287016119c5565b9250506040611a23868287016119c5565b9150509250925092565b611a36816119a4565b82525050565b6000602082019050611a516000830184611a2d565b92915050565b600081519050919050565b600082825260208201905092915050565b60005b83811015611a91578082015181840152602081019050611a76565b60008484015250505050565b6000601f19601f8301169050919050565b6000611ab982611a57565b611ac38185611a62565b9350611ad3818560208601611a73565b611adc81611a9d565b840191505092915050565b60006020820190508181036000830152611b018184611aae565b905092915050565b600073ffffffffffffffffffffffffffffffffffffffff82169050919050565b6000611b3482611b09565b9050919050565b611b4481611b29565b8114611b4f57600080fd5b50565b600081359050611b6181611b3b565b92915050565b60008060408385031215611b7e57611b7d61199f565b5b6000611b8c85828601611b52565b9250506020611b9d858286016119c5565b9150509250929050565b60008115159050919050565b611bbc81611ba7565b82525050565b6000602082019050611bd76000830184611bb3565b92915050565b6000819050919050565b6000611c02611bfd611bf884611b09565b611bdd565b611b09565b9050919050565b6000611c1482611be7565b9050919050565b6000611c2682611c09565b9050919050565b611c3681611c1b565b82525050565b6000602082019050611c516000830184611c2d565b92915050565b60008060408385031215611c6e57611c6d61199f565b5b6000611c7c85828601611b52565b9250506020611c8d85828601611b52565b9150509250929050565b600080600060608486031215611cb057611caf61199f565b5b6000611cbe86828701611b52565b9350506020611ccf86828701611b52565b9250506040611ce0868287016119c5565b9150509250925092565b600060ff82169050919050565b611d0081611cea565b82525050565b6000602082019050611d1b6000830184611cf7565b92915050565b600080600060608486031215611d3a57611d3961199f565b5b6000611d48868287016119c5565b9350506020611d59868287016119c5565b9250506040611d6a86828701611b52565b9150509250925092565b600060208284031215611d8a57611d8961199f565b5b6000611d9884828501611b52565b91505092915050565b600060208284031215611db757611db661199f565b5b6000611dc5848285016119c5565b91505092915050565b6000604082019050611de36000830185611a2d565b611df06020830184611a2d565b9392505050565b60008060408385031215611e0e57611e0d61199f565b5b6000611e1c858286016119c5565b9250506020611e2d858286016119c5565b9150509250929050565b7f496e76616c696420696e70757420616d6f756e74000000000000000000000000600082015250565b6000611e6d601483611a62565b9150611e7882611e37565b602082019050919050565b60006020820190508181036000830152611e9c81611e60565b9050919050565b7f496e76616c696420726573657276657300000000000000000000000000000000600082015250565b6000611ed9601083611a62565b9150611ee482611ea3565b602082019050919050565b60006020820190508181036000830152611f0881611ecc565b9050919050565b7f4e487b7100000000000000000000000000000000000000000000000000000000600052601160045260246000fd5b6000611f49826119a4565b9150611f54836119a4565b9250828201905080821115611f6c57611f6b611f0f565b5b92915050565b6000611f7d826119a4565b9150611f88836119a4565b9250828202611f96816119a4565b91508282048414831517611fad57611fac611f0f565b5b5092915050565b7f4e487b7100000000000000000000000000000000000000000000000000000000600052601260045260246000fd5b6000611fee826119a4565b9150611ff9836119a4565b92508261200957612008611fb4565b5b828204905092915050565b7f4e487b7100000000000000000000000000000000000000000000000000000000600052602260045260246000fd5b6000600282049050600182168061205b57607f821691505b60208210810361206e5761206d612014565b5b50919050565b7f416c726561647920696e697469616c697a656400000000000000000000000000600082015250565b60006120aa601383611a62565b91506120b582612074565b602082019050919050565b600060208201905081810360008301526120d98161209d565b9050919050565b7f496e76616c696420746f6b656e00000000000000000000000000000000000000600082015250565b6000612116600d83611a62565b9150612121826120e0565b602082019050919050565b6000602082019050818103600083015261214581612109565b9050919050565b7f536c6970706167653a204c657373207468616e206d696e696d756d0000000000600082015250565b6000612182601b83611a62565b915061218d8261214c565b602082019050919050565b600060208201905081810360008301526121b181612175565b9050919050565b60006121c3826119a4565b91506121ce836119a4565b92508282039050818111156121e6576121e5611f0f565b5b92915050565b7f4e6f206c697175696469747920696e20746f6b656e4100000000000000000000600082015250565b6000612222601683611a62565b915061222d826121ec565b602082019050919050565b6000602082019050818103600083015261225181612215565b9050919050565b7f496e76616c6964206c6971756964697479000000000000000000000000000000600082015250565b600061228e601183611a62565b915061229982612258565b602082019050919050565b600060208201905081810360008301526122bd81612281565b9050919050565b7f496e73756666696369656e7420746f2077697468647261770000000000000000600082015250565b60006122fa601883611a62565b9150612305826122c4565b602082019050919050565b60006020820190508181036000830152612329816122ed565b9050919050565b7f496e73756666696369656e74206c697175696469747900000000000000000000600082015250565b6000612366601683611a62565b915061237182612330565b602082019050919050565b6000602082019050818103600083015261239581612359565b9050919050565b6123a581611b29565b82525050565b60006060820190506123c0600083018661239c565b6123cd6020830185611a2d565b6123da6040830184611a2d565b949350505050565b60006020820190506123f7600083018461239c565b92915050565b6000606082019050612412600083018661239c565b61241f602083018561239c565b61242c6040830184611a2d565b949350505050565b6000604082019050612449600083018561239c565b6124566020830184611a2d565b939250505056fea2646970667358221220b0a150dd7a555f7fd44de100e678eaed14b9bf3cc5aec9ba4f5c88e6c00d3ba564736f6c63430008180033",
  "linkReferences": {},
  "deployedLinkReferences": {}
}